{
  "transactions": [
    {
      "hash": "0x0d05d337e467a6d18cbd9574092cc262d2eb854d4ec32e800b32122dc9a35944",
      "transactionType": "CALL",
      "contractName": null,
      "contractAddress": "0x31d0220469e10c4e71834a79b1f276d740d3768f",
      "function": "approve(address,uint256)",
      "arguments": [
        "0x000000000022D473030F116dDEE9F6B43aC78BA3",
        "115792089237316195423570985008687907853269984665640564039457584007913129639935"
      ],
      "transaction": {
        "from": "0xbbef71294f0bf0be60b144b6127ad987138cca2d",
        "to": "0x31d0220469e10c4e71834a79b1f276d740d3768f",
        "value": "0x0",
        "input": "0x095ea7b3000000000000000000000000000000000022d473030f116ddee9f6b43ac78ba3ffffffffffffffffffffffffffffffffffffffffffffffffffffffffffffffff",
        "nonce": "0xb",
        "chainId": "0x515"
      },
      "additionalContracts": [],
      "isFixedGasLimit": false
    },
    {
      "hash": "0x5e258a2cd8c4fb661d92d5bc92119aa3e246f9cdbd4ea4ef5b1e5e72e65072f3",
      "transactionType": "CALL",
      "contractName": null,
      "contractAddress": "0x000000000022d473030f116ddee9f6b43ac78ba3",
      "function": "approve(address,address,uint160,uint48)",
      "arguments": [
        "0x31d0220469e10c4E71834a79b1f276d740d3768F",
        "0xf969Aee60879C54bAAed9F3eD26147Db216Fd664",
        "1461501637330902918203684832716283019655932542975",
        "281474976710655"
      ],
      "transaction": {
        "from": "0xbbef71294f0bf0be60b144b6127ad987138cca2d",
        "to": "0x000000000022d473030f116ddee9f6b43ac78ba3",
        "value": "0x0",
        "input": "0x87517c4500000000000000000000000031d0220469e10c4e71834a79b1f276d740d3768f000000000000000000000000f969aee60879c54baaed9f3ed26147db216fd664000000000000000000000000ffffffffffffffffffffffffffffffffffffffff0000000000000000000000000000000000000000000000000000ffffffffffff",
        "nonce": "0xc",
        "chainId": "0x515"
      },
      "additionalContracts": [],
      "isFixedGasLimit": false
    },
    {
      "hash": "0x2a359321d61657829a19c5f67ebfd2c786b58c1f6efbce81e08c03a57febd399",
      "transactionType": "CALL",
      "contractName": null,
      "contractAddress": "0x4200000000000000000000000000000000000006",
      "function": "approve(address,uint256)",
      "arguments": [
        "0x000000000022D473030F116dDEE9F6B43aC78BA3",
        "115792089237316195423570985008687907853269984665640564039457584007913129639935"
      ],
      "transaction": {
        "from": "0xbbef71294f0bf0be60b144b6127ad987138cca2d",
        "to": "0x4200000000000000000000000000000000000006",
        "value": "0x0",
        "input": "0x095ea7b3000000000000000000000000000000000022d473030f116ddee9f6b43ac78ba3ffffffffffffffffffffffffffffffffffffffffffffffffffffffffffffffff",
        "nonce": "0xd",
        "chainId": "0x515"
      },
      "additionalContracts": [],
      "isFixedGasLimit": false
    },
    {
      "hash": "0xecddb00bfc40db5080eb0bc24168f6a31194b7a118bdeca1b3b21799d3ee98fc",
      "transactionType": "CALL",
      "contractName": null,
      "contractAddress": "0x000000000022d473030f116ddee9f6b43ac78ba3",
      "function": "approve(address,address,uint160,uint48)",
      "arguments": [
        "0x4200000000000000000000000000000000000006",
        "0xf969Aee60879C54bAAed9F3eD26147Db216Fd664",
        "1461501637330902918203684832716283019655932542975",
        "281474976710655"
      ],
      "transaction": {
        "from": "0xbbef71294f0bf0be60b144b6127ad987138cca2d",
        "to": "0x000000000022d473030f116ddee9f6b43ac78ba3",
        "value": "0x0",
        "input": "0x87517c450000000000000000000000004200000000000000000000000000000000000006000000000000000000000000f969aee60879c54baaed9f3ed26147db216fd664000000000000000000000000ffffffffffffffffffffffffffffffffffffffff0000000000000000000000000000000000000000000000000000ffffffffffff",
        "nonce": "0xe",
        "chainId": "0x515"
      },
      "additionalContracts": [],
      "isFixedGasLimit": false
    },
    {
      "hash": "0x80b2c7d0ec322cf5950a1846eae43ca7b1168225f89ff9e1899cd9ec58ba8f64",
      "transactionType": "CALL",
      "contractName": null,
      "contractAddress": "0xf969aee60879c54baaed9f3ed26147db216fd664",
      "function": "multicall(bytes[])",
      "arguments": [
        "[0xf702040500000000000000000000000031d0220469e10c4e71834a79b1f276d740d3768f00000000000000000000000042000000000000000000000000000000000000060000000000000000000000000000000000000000000000000000000000000bb8000000000000000000000000000000000000000000000000000000000000003c000000000000000000000000c7e2a9498846dd2ed07a135a01c2bc51ae9200400000000000000000000000000000000000000000081a9ba9bc27e2b7c34b689000000000000000000000000000000000000000000000000000000000000000e00000000000000000000000000000000000000000000000000000000000000000, 0xdd46508f00000000000000000000000000000000000000000000000000000000000000400000000000000000000000000000000000000000000000000000000068a17e900000000000000000000000000000000000000000000000000000000000000400000000000000000000000000000000000000000000000000000000000000004000000000000000000000000000000000000000000000000000000000000000800000000000000000000000000000000000000000000000000000000000000004020d14140000000000000000000000000000000000000000000000000000000000000000000000000000000000000000000000000000000000000000000000040000000000000000000000000000000000000000000000000000000000000080000000000000000000000000000000000000000000000000000000000000024000000000000000000000000000000000000000000000000000000000000002a0000000000000000000000000000000000000000000000000000000000000030000000000000000000000000000000000000000000000000000000000000001a000000000000000000000000031d0220469e10c4e71834a79b1f276d740d3768f00000000000000000000000042000000000000000000000000000000000000060000000000000000000000000000000000000000000000000000000000000bb8000000000000000000000000000000000000000000000000000000000000003c000000000000000000000000c7e2a9498846dd2ed07a135a01c2bc51ae920040fffffffffffffffffffffffffffffffffffffffffffffffffffffffffffe4274ffffffffffffffffffffffffffffffffffffffffffffffffffffffffffffa204000000000000000000000000000000000000000000000000000000000002b32200000000000000000000000000000000000000000000000000000000004c4b410000000000000000000000000000000000000000000000000011c37937e08001000000000000000000000000bbef71294f0bf0be60b144b6127ad987138cca2d00000000000000000000000000000000000000000000000000000000000001800000000000000000000000000000000000000000000000000000000000000000000000000000000000000000000000000000000000000000000000000000004000000000000000000000000031d0220469e10c4e71834a79b1f276d740d3768f0000000000000000000000004200000000000000000000000000000000000006000000000000000000000000000000000000000000000000000000000000004000000000000000000000000031d0220469e10c4e71834a79b1f276d740d3768f000000000000000000000000bbef71294f0bf0be60b144b6127ad987138cca2d00000000000000000000000000000000000000000000000000000000000000400000000000000000000000004200000000000000000000000000000000000006000000000000000000000000bbef71294f0bf0be60b144b6127ad987138cca2d]"
      ],
      "transaction": {
        "from": "0xbbef71294f0bf0be60b144b6127ad987138cca2d",
        "to": "0xf969aee60879c54baaed9f3ed26147db216fd664",
        "value": "0x0",
        "input": "0xac9650d800000000000000000000000000000000000000000000000000000000000000200000000000000000000000000000000000000000000000000000000000000002000000000000000000000000000000000000000000000000000000000000004000000000000000000000000000000000000000000000000000000000000001800000000000000000000000000000000000000000000000000000000000000104f702040500000000000000000000000031d0220469e10c4e71834a79b1f276d740d3768f00000000000000000000000042000000000000000000000000000000000000060000000000000000000000000000000000000000000000000000000000000bb8000000000000000000000000000000000000000000000000000000000000003c000000000000000000000000c7e2a9498846dd2ed07a135a01c2bc51ae9200400000000000000000000000000000000000000000081a9ba9bc27e2b7c34b689000000000000000000000000000000000000000000000000000000000000000e00000000000000000000000000000000000000000000000000000000000000000000000000000000000000000000000000000000000000000000000000000000000000000000000000000000000000000000000000000000000000464dd46508f00000000000000000000000000000000000000000000000000000000000000400000000000000000000000000000000000000000000000000000000068a17e900000000000000000000000000000000000000000000000000000000000000400000000000000000000000000000000000000000000000000000000000000004000000000000000000000000000000000000000000000000000000000000000800000000000000000000000000000000000000000000000000000000000000004020d14140000000000000000000000000000000000000000000000000000000000000000000000000000000000000000000000000000000000000000000000040000000000000000000000000000000000000000000000000000000000000080000000000000000000000000000000000000000000000000000000000000024000000000000000000000000000000000000000000000000000000000000002a0000000000000000000000000000000000000000000000000000000000000030000000000000000000000000000000000000000000000000000000000000001a000000000000000000000000031d0220469e10c4e71834a79b1f276d740d3768f00000000000000000000000042000000000000000000000000000000000000060000000000000000000000000000000000000000000000000000000000000bb8000000000000000000000000000000000000000000000000000000000000003c000000000000000000000000c7e2a9498846dd2ed07a135a01c2bc51ae920040fffffffffffffffffffffffffffffffffffffffffffffffffffffffffffe4274ffffffffffffffffffffffffffffffffffffffffffffffffffffffffffffa204000000000000000000000000000000000000000000000000000000000002b32200000000000000000000000000000000000000000000000000000000004c4b410000000000000000000000000000000000000000000000000011c37937e08001000000000000000000000000bbef71294f0bf0be60b144b6127ad987138cca2d00000000000000000000000000000000000000000000000000000000000001800000000000000000000000000000000000000000000000000000000000000000000000000000000000000000000000000000000000000000000000000000004000000000000000000000000031d0220469e10c4e71834a79b1f276d740d3768f0000000000000000000000004200000000000000000000000000000000000006000000000000000000000000000000000000000000000000000000000000004000000000000000000000000031d0220469e10c4e71834a79b1f276d740d3768f000000000000000000000000bbef71294f0bf0be60b144b6127ad987138cca2d00000000000000000000000000000000000000000000000000000000000000400000000000000000000000004200000000000000000000000000000000000006000000000000000000000000bbef71294f0bf0be60b144b6127ad987138cca2d00000000000000000000000000000000000000000000000000000000",
        "nonce": "0xf",
        "chainId": "0x515"
      },
      "additionalContracts": [],
      "isFixedGasLimit": false
    }
  ],
  "receipts": [
    {
      "status": "0x1",
      "cumulativeGasUsed": "0x1a0a5",
      "logs": [
        {
          "address": "0x31d0220469e10c4e71834a79b1f276d740d3768f",
          "topics": [
            "0x8c5be1e5ebec7d5bd14f71427d1e84f3dd0314c0f7b2291e5b200ac8c7c3b925",
            "0x000000000000000000000000bbef71294f0bf0be60b144b6127ad987138cca2d",
            "0x000000000000000000000000000000000022d473030f116ddee9f6b43ac78ba3"
          ],
          "data": "0xffffffffffffffffffffffffffffffffffffffffffffffffffffffffffffffff",
          "blockHash": "0xafc8621a30346d2198714a0d9805c3a912fd9b20fc6888a3878ecca955ea9c3a",
          "blockNumber": "0x1b3c349",
          "transactionHash": "0x0d05d337e467a6d18cbd9574092cc262d2eb854d4ec32e800b32122dc9a35944",
          "transactionIndex": "0x2",
          "logIndex": "0x0",
          "removed": false
        }
      ],
      "logsBloom": "0x00000000000000000000000000000000000000000000000000000000000000000000000000000000000000000000000000000000800000000000000000200000000000000000000000004000000000000000000000001800000000000000000000000000000000000000000000000000000000000000000000000000008000000000000000000000000000000000000000000000000000000000000000000000020000000001000080000000000000000000000000000420000000000000000000000000000000000000000000000000000000000000000000000000000000000010000000000000000000000000000000000000000000000000000000000000",
      "type": "0x2",
      "transactionHash": "0x0d05d337e467a6d18cbd9574092cc262d2eb854d4ec32e800b32122dc9a35944",
      "transactionIndex": "0x2",
      "blockHash": "0xafc8621a30346d2198714a0d9805c3a912fd9b20fc6888a3878ecca955ea9c3a",
      "blockNumber": "0x1b3c349",
      "gasUsed": "0x96e1",
      "effectiveGasPrice": "0xfe",
      "from": "0xbbef71294f0bf0be60b144b6127ad987138cca2d",
      "to": "0x31d0220469e10c4e71834a79b1f276d740d3768f",
      "contractAddress": null,
      "l1BaseFeeScalar": "0x7d0",
      "l1BlobBaseFee": "0x1f20839",
      "l1BlobBaseFeeScalar": "0xdbba0",
      "l1Fee": "0xb007e646",
      "l1GasPrice": "0x4b50b3",
      "l1GasUsed": "0x640"
    },
    {
      "status": "0x1",
      "cumulativeGasUsed": "0x176d2",
      "logs": [
        {
          "address": "0x000000000022d473030f116ddee9f6b43ac78ba3",
          "topics": [
            "0xda9fa7c1b00402c17d0161b249b1ab8bbec047c5a52207b9c112deffd817036b",
            "0x000000000000000000000000bbef71294f0bf0be60b144b6127ad987138cca2d",
            "0x00000000000000000000000031d0220469e10c4e71834a79b1f276d740d3768f",
            "0x000000000000000000000000f969aee60879c54baaed9f3ed26147db216fd664"
          ],
          "data": "0x000000000000000000000000ffffffffffffffffffffffffffffffffffffffff0000000000000000000000000000000000000000000000000000ffffffffffff",
          "blockHash": "0x4301c81d019bbd9db81c9191de5a4af8e5c707a1fee4ecb3705bee317e3af41e",
          "blockNumber": "0x1b3c34c",
          "transactionHash": "0x5e258a2cd8c4fb661d92d5bc92119aa3e246f9cdbd4ea4ef5b1e5e72e65072f3",
          "transactionIndex": "0x2",
          "logIndex": "0x0",
          "removed": false
        }
      ],
      "logsBloom": "0x00010000000000000000000000000000000000000000000000000000000000000000000000000080000000000000000000000000000000000000000000080000000000000000000000000000000000000000000000000000000000001000000000000000000000000000000000000000000000000040000000000000008000000020000000000000000000000000000000000000000000000000000000000000000000000000000000000000000000000000000000000420000000080000000000000000000000008000000000000000000000000000000040000000000000000000000000001000000000000000000000000000000000000000000000002400",
      "type": "0x2",
      "transactionHash": "0x5e258a2cd8c4fb661d92d5bc92119aa3e246f9cdbd4ea4ef5b1e5e72e65072f3",
      "transactionIndex": "0x2",
      "blockHash": "0x4301c81d019bbd9db81c9191de5a4af8e5c707a1fee4ecb3705bee317e3af41e",
      "blockNumber": "0x1b3c34c",
      "gasUsed": "0x6d0e",
      "effectiveGasPrice": "0xfe",
      "from": "0xbbef71294f0bf0be60b144b6127ad987138cca2d",
      "to": "0x000000000022d473030f116ddee9f6b43ac78ba3",
      "contractAddress": null,
      "l1BaseFeeScalar": "0x7d0",
      "l1BlobBaseFee": "0x1f20839",
      "l1BlobBaseFeeScalar": "0xdbba0",
      "l1Fee": "0xbc9d05a1",
      "l1GasPrice": "0x4b50b3",
      "l1GasUsed": "0x6b2"
    },
    {
      "status": "0x1",
      "cumulativeGasUsed": "0x1714d",
      "logs": [
        {
          "address": "0x4200000000000000000000000000000000000006",
          "topics": [
            "0x8c5be1e5ebec7d5bd14f71427d1e84f3dd0314c0f7b2291e5b200ac8c7c3b925",
            "0x000000000000000000000000bbef71294f0bf0be60b144b6127ad987138cca2d",
            "0x000000000000000000000000000000000022d473030f116ddee9f6b43ac78ba3"
          ],
          "data": "0xffffffffffffffffffffffffffffffffffffffffffffffffffffffffffffffff",
          "blockHash": "0xb882acf06552564ac743b70d4094774ec996f3ba1279b2989f847009822a1352",
          "blockNumber": "0x1b3c34f",
          "transactionHash": "0x2a359321d61657829a19c5f67ebfd2c786b58c1f6efbce81e08c03a57febd399",
          "transactionIndex": "0x2",
          "logIndex": "0x0",
          "removed": false
        }
      ],
      "logsBloom": "0x00000000000000000000000000000000000000000000000000040000000000000000000000000000000000100000000000000000800000000000000000200000000000000000000000004000000000000000000000000800000000000000000000000000000000000000000000000000000000000000000000000000008000000000000000000000000000000000000000000000002000000000000000000000020000000000000000000000000000000000000000000420000000000000000000000000000000000000000000000000000000000000000000000000000000000010000000000000000000000000000000000000000000000000000000000000",
      "type": "0x2",
      "transactionHash": "0x2a359321d61657829a19c5f67ebfd2c786b58c1f6efbce81e08c03a57febd399",
      "transactionIndex": "0x2",
      "blockHash": "0xb882acf06552564ac743b70d4094774ec996f3ba1279b2989f847009822a1352",
      "blockNumber": "0x1b3c34f",
      "gasUsed": "0x6789",
      "effectiveGasPrice": "0xfe",
      "from": "0xbbef71294f0bf0be60b144b6127ad987138cca2d",
      "to": "0x4200000000000000000000000000000000000006",
      "contractAddress": null,
      "l1BaseFeeScalar": "0x7d0",
      "l1BlobBaseFee": "0x1c086df",
      "l1BlobBaseFeeScalar": "0xdbba0",
      "l1Fee": "0x9ea874e9",
      "l1GasPrice": "0x4dd349",
      "l1GasUsed": "0x640"
    },
    {
      "status": "0x1",
      "cumulativeGasUsed": "0x1c8ca",
      "logs": [
        {
          "address": "0x000000000022d473030f116ddee9f6b43ac78ba3",
          "topics": [
            "0xda9fa7c1b00402c17d0161b249b1ab8bbec047c5a52207b9c112deffd817036b",
            "0x000000000000000000000000bbef71294f0bf0be60b144b6127ad987138cca2d",
            "0x0000000000000000000000004200000000000000000000000000000000000006",
            "0x000000000000000000000000f969aee60879c54baaed9f3ed26147db216fd664"
          ],
          "data": "0x000000000000000000000000ffffffffffffffffffffffffffffffffffffffff0000000000000000000000000000000000000000000000000000ffffffffffff",
          "blockHash": "0x27c4973a41b650d9d39a696060551f12b382aa8023439d41708952554418557e",
          "blockNumber": "0x1b3c352",
          "transactionHash": "0xecddb00bfc40db5080eb0bc24168f6a31194b7a118bdeca1b3b21799d3ee98fc",
          "transactionIndex": "0x3",
          "logIndex": "0x0",
          "removed": false
        }
      ],
      "logsBloom": "0x00010000000000000000000000000000000000000000000000000000000000000000000000000000000000000000000000000000000000000020000000080000000000000000000000000000000000000000000000000000000000001000000000000000000000000000000000000000000010000040000000000000008000000020000000000000000000000000000000000000000000000000000000000000000000000000000000000000000000000000000000000420000000080000000000000000000004000000000000000000000000000000000040000000000000000000000000000000000000000000000000000000000000000000000000002400",
      "type": "0x2",
      "transactionHash": "0xecddb00bfc40db5080eb0bc24168f6a31194b7a118bdeca1b3b21799d3ee98fc",
      "transactionIndex": "0x3",
      "blockHash": "0x27c4973a41b650d9d39a696060551f12b382aa8023439d41708952554418557e",
      "blockNumber": "0x1b3c352",
      "gasUsed": "0x6c36",
      "effectiveGasPrice": "0xfe",
      "from": "0xbbef71294f0bf0be60b144b6127ad987138cca2d",
      "to": "0x000000000022d473030f116ddee9f6b43ac78ba3",
      "contractAddress": null,
      "l1BaseFeeScalar": "0x7d0",
      "l1BlobBaseFee": "0x1c086df",
      "l1BlobBaseFeeScalar": "0xdbba0",
      "l1Fee": "0x9ea874e9",
      "l1GasPrice": "0x4dd349",
      "l1GasUsed": "0x640"
    },
    {
      "status": "0x1",
      "cumulativeGasUsed": "0x8489f",
      "logs": [
        {
          "address": "0x00b036b58a818b1bc34d502d3fe730db729e62ac",
          "topics": [
            "0xdd466e674ea557f56295e2d0218a125ea4b4f0f6f3307b95f85e6110838d6438",
            "0xfdd6a80abe486ba1c2f86a41ea73a62e093a2cd546660e910eb5c5032f9576f1",
            "0x00000000000000000000000031d0220469e10c4e71834a79b1f276d740d3768f",
            "0x0000000000000000000000004200000000000000000000000000000000000006"
          ],
          "data": "0x0000000000000000000000000000000000000000000000000000000000000bb8000000000000000000000000000000000000000000000000000000000000003c000000000000000000000000c7e2a9498846dd2ed07a135a01c2bc51ae9200400000000000000000000000000000000000000000081a9ba9bc27e2b7c34b6890fffffffffffffffffffffffffffffffffffffffffffffffffffffffffffef23c",
          "blockHash": "0x651d42938e27c5cc05cb9d1310e97667033ecc939011c603962144ec8da3a67e",
          "blockNumber": "0x1b3c355",
          "transactionHash": "0x80b2c7d0ec322cf5950a1846eae43ca7b1168225f89ff9e1899cd9ec58ba8f64",
          "transactionIndex": "0x3",
          "logIndex": "0x0",
          "removed": false
        },
        {
          "address": "0xf969aee60879c54baaed9f3ed26147db216fd664",
          "topics": [
            "0xddf252ad1be2c89b69c2b068fc378daa952ba7f163c4a11628f55a4df523b3ef",
            "0x0000000000000000000000000000000000000000000000000000000000000000",
            "0x000000000000000000000000bbef71294f0bf0be60b144b6127ad987138cca2d",
            "0x00000000000000000000000000000000000000000000000000000000000014bc"
          ],
          "data": "0x",
          "blockHash": "0x651d42938e27c5cc05cb9d1310e97667033ecc939011c603962144ec8da3a67e",
          "blockNumber": "0x1b3c355",
          "transactionHash": "0x80b2c7d0ec322cf5950a1846eae43ca7b1168225f89ff9e1899cd9ec58ba8f64",
          "transactionIndex": "0x3",
          "logIndex": "0x1",
          "removed": false
        },
        {
          "address": "0x00b036b58a818b1bc34d502d3fe730db729e62ac",
          "topics": [
            "0xf208f4912782fd25c7f114ca3723a2d5dd6f3bcc3ac8db5af63baa85f711d5ec",
            "0xfdd6a80abe486ba1c2f86a41ea73a62e093a2cd546660e910eb5c5032f9576f1",
            "0x000000000000000000000000f969aee60879c54baaed9f3ed26147db216fd664"
          ],
          "data": "0xfffffffffffffffffffffffffffffffffffffffffffffffffffffffffffe4274ffffffffffffffffffffffffffffffffffffffffffffffffffffffffffffa204000000000000000000000000000000000000000000000000000000000002b32200000000000000000000000000000000000000000000000000000000000014bc",
          "blockHash": "0x651d42938e27c5cc05cb9d1310e97667033ecc939011c603962144ec8da3a67e",
          "blockNumber": "0x1b3c355",
          "transactionHash": "0x80b2c7d0ec322cf5950a1846eae43ca7b1168225f89ff9e1899cd9ec58ba8f64",
          "transactionIndex": "0x3",
          "logIndex": "0x2",
          "removed": false
        },
        {
          "address": "0x31d0220469e10c4e71834a79b1f276d740d3768f",
          "topics": [
            "0xddf252ad1be2c89b69c2b068fc378daa952ba7f163c4a11628f55a4df523b3ef",
            "0x000000000000000000000000bbef71294f0bf0be60b144b6127ad987138cca2d",
            "0x00000000000000000000000000b036b58a818b1bc34d502d3fe730db729e62ac"
          ],
          "data": "0x00000000000000000000000000000000000000000000000000000000004c4b33",
          "blockHash": "0x651d42938e27c5cc05cb9d1310e97667033ecc939011c603962144ec8da3a67e",
          "blockNumber": "0x1b3c355",
          "transactionHash": "0x80b2c7d0ec322cf5950a1846eae43ca7b1168225f89ff9e1899cd9ec58ba8f64",
          "transactionIndex": "0x3",
          "logIndex": "0x3",
          "removed": false
        },
        {
          "address": "0x4200000000000000000000000000000000000006",
          "topics": [
            "0xddf252ad1be2c89b69c2b068fc378daa952ba7f163c4a11628f55a4df523b3ef",
            "0x000000000000000000000000bbef71294f0bf0be60b144b6127ad987138cca2d",
            "0x00000000000000000000000000b036b58a818b1bc34d502d3fe730db729e62ac"
          ],
          "data": "0x0000000000000000000000000000000000000000000000000000000000001393",
          "blockHash": "0x651d42938e27c5cc05cb9d1310e97667033ecc939011c603962144ec8da3a67e",
          "blockNumber": "0x1b3c355",
          "transactionHash": "0x80b2c7d0ec322cf5950a1846eae43ca7b1168225f89ff9e1899cd9ec58ba8f64",
          "transactionIndex": "0x3",
          "logIndex": "0x4",
          "removed": false
        }
      ],
      "logsBloom": "0x00000000000000000000000000000000000000000000000000040008000000000000020000000080000000100000000040000000001000000020000000000000000000000000000000000008000000000000000000001000000000001000000000000000020000000000000000004800000010000040000000000010008000000010000001000008000000000008000000000001002000000000000000200000000004000001000080000000000000000800000000000420000000000000000000000002080004009000000000000000000000040000000000000000000020004000000000001000000000000000000004000000000002000000000000002010",
      "type": "0x2",
      "transactionHash": "0x80b2c7d0ec322cf5950a1846eae43ca7b1168225f89ff9e1899cd9ec58ba8f64",
      "transactionIndex": "0x3",
      "blockHash": "0x651d42938e27c5cc05cb9d1310e97667033ecc939011c603962144ec8da3a67e",
      "blockNumber": "0x1b3c355",
      "gasUsed": "0x6ec0b",
      "effectiveGasPrice": "0xfe",
      "from": "0xbbef71294f0bf0be60b144b6127ad987138cca2d",
      "to": "0xf969aee60879c54baaed9f3ed26147db216fd664",
      "contractAddress": null,
      "l1BaseFeeScalar": "0x7d0",
      "l1BlobBaseFee": "0x1c086df",
      "l1BlobBaseFeeScalar": "0xdbba0",
      "l1Fee": "0x205b7ece3",
      "l1GasPrice": "0x4dd349",
      "l1GasUsed": "0x1464"
    }
  ],
  "libraries": [],
  "pending": [],
  "returns": {},
  "timestamp": 1755410594787,
  "chain": 1301,
  "commit": "71bfa58"
}