{
  "transactions": [
    {
      "hash": "0x96b69b31d3f2e146641adb27ef2d283daff6ebd1227866ea4e25c9bc5a14ee53",
      "transactionType": "CALL",
      "contractName": null,
      "contractAddress": "0x31d0220469e10c4e71834a79b1f276d740d3768f",
      "function": "approve(address,uint256)",
      "arguments": [
        "0x000000000022D473030F116dDEE9F6B43aC78BA3",
        "115792089237316195423570985008687907853269984665640564039457584007913129639935"
      ],
      "transaction": {
        "from": "0xbbef71294f0bf0be60b144b6127ad987138cca2d",
        "to": "0x31d0220469e10c4e71834a79b1f276d740d3768f",
        "value": "0x0",
        "input": "0x095ea7b3000000000000000000000000000000000022d473030f116ddee9f6b43ac78ba3ffffffffffffffffffffffffffffffffffffffffffffffffffffffffffffffff",
        "nonce": "0x3",
        "chainId": "0x515"
      },
      "additionalContracts": [],
      "isFixedGasLimit": false
    },
    {
      "hash": "0xf7505eeafbaa483f2a76ebf56689c6c38b3af385738e685788595d63d3fa69c7",
      "transactionType": "CALL",
      "contractName": null,
      "contractAddress": "0x000000000022d473030f116ddee9f6b43ac78ba3",
      "function": "approve(address,address,uint160,uint48)",
      "arguments": [
        "0x31d0220469e10c4E71834a79b1f276d740d3768F",
        "0xf969Aee60879C54bAAed9F3eD26147Db216Fd664",
        "1461501637330902918203684832716283019655932542975",
        "281474976710655"
      ],
      "transaction": {
        "from": "0xbbef71294f0bf0be60b144b6127ad987138cca2d",
        "to": "0x000000000022d473030f116ddee9f6b43ac78ba3",
        "value": "0x0",
        "input": "0x87517c4500000000000000000000000031d0220469e10c4e71834a79b1f276d740d3768f000000000000000000000000f969aee60879c54baaed9f3ed26147db216fd664000000000000000000000000ffffffffffffffffffffffffffffffffffffffff0000000000000000000000000000000000000000000000000000ffffffffffff",
        "nonce": "0x4",
        "chainId": "0x515"
      },
      "additionalContracts": [],
      "isFixedGasLimit": false
    },
    {
      "hash": "0x47fa797fc92648bcd4785e0dcd319051e11b5619afaff2d2287599c9156ef792",
      "transactionType": "CALL",
      "contractName": null,
      "contractAddress": "0x4200000000000000000000000000000000000006",
      "function": "approve(address,uint256)",
      "arguments": [
        "0x000000000022D473030F116dDEE9F6B43aC78BA3",
        "115792089237316195423570985008687907853269984665640564039457584007913129639935"
      ],
      "transaction": {
        "from": "0xbbef71294f0bf0be60b144b6127ad987138cca2d",
        "to": "0x4200000000000000000000000000000000000006",
        "value": "0x0",
        "input": "0x095ea7b3000000000000000000000000000000000022d473030f116ddee9f6b43ac78ba3ffffffffffffffffffffffffffffffffffffffffffffffffffffffffffffffff",
        "nonce": "0x5",
        "chainId": "0x515"
      },
      "additionalContracts": [],
      "isFixedGasLimit": false
    },
    {
      "hash": "0xf6b13260cb0b8f78d6392bdfade5786c7c657da3ff530d0eeefff7f80f231c3f",
      "transactionType": "CALL",
      "contractName": null,
      "contractAddress": "0x000000000022d473030f116ddee9f6b43ac78ba3",
      "function": "approve(address,address,uint160,uint48)",
      "arguments": [
        "0x4200000000000000000000000000000000000006",
        "0xf969Aee60879C54bAAed9F3eD26147Db216Fd664",
        "1461501637330902918203684832716283019655932542975",
        "281474976710655"
      ],
      "transaction": {
        "from": "0xbbef71294f0bf0be60b144b6127ad987138cca2d",
        "to": "0x000000000022d473030f116ddee9f6b43ac78ba3",
        "value": "0x0",
        "input": "0x87517c450000000000000000000000004200000000000000000000000000000000000006000000000000000000000000f969aee60879c54baaed9f3ed26147db216fd664000000000000000000000000ffffffffffffffffffffffffffffffffffffffff0000000000000000000000000000000000000000000000000000ffffffffffff",
        "nonce": "0x6",
        "chainId": "0x515"
      },
      "additionalContracts": [],
      "isFixedGasLimit": false
    },
    {
      "hash": "0x5924f6cf4d79bedefd3f5da4e86787a09a8a00054f4557c145f9b3cb065dc66d",
      "transactionType": "CALL",
      "contractName": null,
      "contractAddress": "0xf969aee60879c54baaed9f3ed26147db216fd664",
      "function": "multicall(bytes[])",
      "arguments": [
        "[0xf702040500000000000000000000000031d0220469e10c4e71834a79b1f276d740d3768f00000000000000000000000042000000000000000000000000000000000000060000000000000000000000000000000000000000000000000000000000000bb8000000000000000000000000000000000000000000000000000000000000003c00000000000000000000000076c721f567c6410d2e19277228241b23a1f680400000000000000000000000000000000000000000081a9ba9bc27e2b7c34b689000000000000000000000000000000000000000000000000000000000000000e00000000000000000000000000000000000000000000000000000000000000000, 0xdd46508f00000000000000000000000000000000000000000000000000000000000000400000000000000000000000000000000000000000000000000000000068a102ba0000000000000000000000000000000000000000000000000000000000000400000000000000000000000000000000000000000000000000000000000000004000000000000000000000000000000000000000000000000000000000000000800000000000000000000000000000000000000000000000000000000000000004020d14140000000000000000000000000000000000000000000000000000000000000000000000000000000000000000000000000000000000000000000000040000000000000000000000000000000000000000000000000000000000000080000000000000000000000000000000000000000000000000000000000000024000000000000000000000000000000000000000000000000000000000000002a0000000000000000000000000000000000000000000000000000000000000030000000000000000000000000000000000000000000000000000000000000001a000000000000000000000000031d0220469e10c4e71834a79b1f276d740d3768f00000000000000000000000042000000000000000000000000000000000000060000000000000000000000000000000000000000000000000000000000000bb8000000000000000000000000000000000000000000000000000000000000003c00000000000000000000000076c721f567c6410d2e19277228241b23a1f68040fffffffffffffffffffffffffffffffffffffffffffffffffffffffffffe4274ffffffffffffffffffffffffffffffffffffffffffffffffffffffffffffa204000000000000000000000000000000000000000000000000000000000002b32200000000000000000000000000000000000000000000000000000000004c4b410000000000000000000000000000000000000000000000000011c37937e08001000000000000000000000000bbef71294f0bf0be60b144b6127ad987138cca2d00000000000000000000000000000000000000000000000000000000000001800000000000000000000000000000000000000000000000000000000000000000000000000000000000000000000000000000000000000000000000000000004000000000000000000000000031d0220469e10c4e71834a79b1f276d740d3768f0000000000000000000000004200000000000000000000000000000000000006000000000000000000000000000000000000000000000000000000000000004000000000000000000000000031d0220469e10c4e71834a79b1f276d740d3768f000000000000000000000000bbef71294f0bf0be60b144b6127ad987138cca2d00000000000000000000000000000000000000000000000000000000000000400000000000000000000000004200000000000000000000000000000000000006000000000000000000000000bbef71294f0bf0be60b144b6127ad987138cca2d]"
      ],
      "transaction": {
        "from": "0xbbef71294f0bf0be60b144b6127ad987138cca2d",
        "to": "0xf969aee60879c54baaed9f3ed26147db216fd664",
        "value": "0x0",
        "input": "0xac9650d800000000000000000000000000000000000000000000000000000000000000200000000000000000000000000000000000000000000000000000000000000002000000000000000000000000000000000000000000000000000000000000004000000000000000000000000000000000000000000000000000000000000001800000000000000000000000000000000000000000000000000000000000000104f702040500000000000000000000000031d0220469e10c4e71834a79b1f276d740d3768f00000000000000000000000042000000000000000000000000000000000000060000000000000000000000000000000000000000000000000000000000000bb8000000000000000000000000000000000000000000000000000000000000003c00000000000000000000000076c721f567c6410d2e19277228241b23a1f680400000000000000000000000000000000000000000081a9ba9bc27e2b7c34b689000000000000000000000000000000000000000000000000000000000000000e00000000000000000000000000000000000000000000000000000000000000000000000000000000000000000000000000000000000000000000000000000000000000000000000000000000000000000000000000000000000000464dd46508f00000000000000000000000000000000000000000000000000000000000000400000000000000000000000000000000000000000000000000000000068a102ba0000000000000000000000000000000000000000000000000000000000000400000000000000000000000000000000000000000000000000000000000000004000000000000000000000000000000000000000000000000000000000000000800000000000000000000000000000000000000000000000000000000000000004020d14140000000000000000000000000000000000000000000000000000000000000000000000000000000000000000000000000000000000000000000000040000000000000000000000000000000000000000000000000000000000000080000000000000000000000000000000000000000000000000000000000000024000000000000000000000000000000000000000000000000000000000000002a0000000000000000000000000000000000000000000000000000000000000030000000000000000000000000000000000000000000000000000000000000001a000000000000000000000000031d0220469e10c4e71834a79b1f276d740d3768f00000000000000000000000042000000000000000000000000000000000000060000000000000000000000000000000000000000000000000000000000000bb8000000000000000000000000000000000000000000000000000000000000003c00000000000000000000000076c721f567c6410d2e19277228241b23a1f68040fffffffffffffffffffffffffffffffffffffffffffffffffffffffffffe4274ffffffffffffffffffffffffffffffffffffffffffffffffffffffffffffa204000000000000000000000000000000000000000000000000000000000002b32200000000000000000000000000000000000000000000000000000000004c4b410000000000000000000000000000000000000000000000000011c37937e08001000000000000000000000000bbef71294f0bf0be60b144b6127ad987138cca2d00000000000000000000000000000000000000000000000000000000000001800000000000000000000000000000000000000000000000000000000000000000000000000000000000000000000000000000000000000000000000000000004000000000000000000000000031d0220469e10c4e71834a79b1f276d740d3768f0000000000000000000000004200000000000000000000000000000000000006000000000000000000000000000000000000000000000000000000000000004000000000000000000000000031d0220469e10c4e71834a79b1f276d740d3768f000000000000000000000000bbef71294f0bf0be60b144b6127ad987138cca2d00000000000000000000000000000000000000000000000000000000000000400000000000000000000000004200000000000000000000000000000000000006000000000000000000000000bbef71294f0bf0be60b144b6127ad987138cca2d00000000000000000000000000000000000000000000000000000000",
        "nonce": "0x7",
        "chainId": "0x515"
      },
      "additionalContracts": [],
      "isFixedGasLimit": false
    }
  ],
  "receipts": [
    {
      "status": "0x1",
      "cumulativeGasUsed": "0x1e371",
      "logs": [
        {
          "address": "0x31d0220469e10c4e71834a79b1f276d740d3768f",
          "topics": [
            "0x8c5be1e5ebec7d5bd14f71427d1e84f3dd0314c0f7b2291e5b200ac8c7c3b925",
            "0x000000000000000000000000bbef71294f0bf0be60b144b6127ad987138cca2d",
            "0x000000000000000000000000000000000022d473030f116ddee9f6b43ac78ba3"
          ],
          "data": "0xffffffffffffffffffffffffffffffffffffffffffffffffffffffffffffffff",
          "blockHash": "0x1f33e203558270ee71e8d69f0c2d7d346dd7d43014dbe8c439d3c5641070601c",
          "blockNumber": "0x1b34774",
          "transactionHash": "0x96b69b31d3f2e146641adb27ef2d283daff6ebd1227866ea4e25c9bc5a14ee53",
          "transactionIndex": "0x2",
          "logIndex": "0x0",
          "removed": false
        }
      ],
      "logsBloom": "0x00000000000000000000000000000000000000000000000000000000000000000000000000000000000000000000000000000000800000000000000000200000000000000000000000004000000000000000000000001800000000000000000000000000000000000000000000000000000000000000000000000000008000000000000000000000000000000000000000000000000000000000000000000000020000000001000080000000000000000000000000000420000000000000000000000000000000000000000000000000000000000000000000000000000000000010000000000000000000000000000000000000000000000000000000000000",
      "type": "0x2",
      "transactionHash": "0x96b69b31d3f2e146641adb27ef2d283daff6ebd1227866ea4e25c9bc5a14ee53",
      "transactionIndex": "0x2",
      "blockHash": "0x1f33e203558270ee71e8d69f0c2d7d346dd7d43014dbe8c439d3c5641070601c",
      "blockNumber": "0x1b34774",
      "gasUsed": "0xd9ad",
      "effectiveGasPrice": "0xfe",
      "from": "0xbbef71294f0bf0be60b144b6127ad987138cca2d",
      "to": "0x31d0220469e10c4e71834a79b1f276d740d3768f",
      "contractAddress": null,
      "l1BaseFeeScalar": "0x7d0",
      "l1BlobBaseFee": "0x8a1f42",
      "l1BlobBaseFeeScalar": "0xdbba0",
      "l1Fee": "0x311a7f34",
      "l1GasPrice": "0x2b98a0",
      "l1GasUsed": "0x640"
    },
    {
      "status": "0x1",
      "cumulativeGasUsed": "0x2175e",
      "logs": [
        {
          "address": "0x000000000022d473030f116ddee9f6b43ac78ba3",
          "topics": [
            "0xda9fa7c1b00402c17d0161b249b1ab8bbec047c5a52207b9c112deffd817036b",
            "0x000000000000000000000000bbef71294f0bf0be60b144b6127ad987138cca2d",
            "0x00000000000000000000000031d0220469e10c4e71834a79b1f276d740d3768f",
            "0x000000000000000000000000f969aee60879c54baaed9f3ed26147db216fd664"
          ],
          "data": "0x000000000000000000000000ffffffffffffffffffffffffffffffffffffffff0000000000000000000000000000000000000000000000000000ffffffffffff",
          "blockHash": "0x63cb26ae7e67ff7fb7d3ccd0feea6c67719dbf44342cf1c1e0d871fe2cac4abe",
          "blockNumber": "0x1b34777",
          "transactionHash": "0xf7505eeafbaa483f2a76ebf56689c6c38b3af385738e685788595d63d3fa69c7",
          "transactionIndex": "0x3",
          "logIndex": "0x0",
          "removed": false
        }
      ],
      "logsBloom": "0x00010000000000000000000000000000000000000000000000000000000000000000000000000080000000000000000000000000000000000000000000080000000000000000000000000000000000000000000000000000000000001000000000000000000000000000000000000000000000000040000000000000008000000020000000000000000000000000000000000000000000000000000000000000000000000000000000000000000000000000000000000420000000080000000000000000000000008000000000000000000000000000000040000000000000000000000000001000000000000000000000000000000000000000000000002400",
      "type": "0x2",
      "transactionHash": "0xf7505eeafbaa483f2a76ebf56689c6c38b3af385738e685788595d63d3fa69c7",
      "transactionIndex": "0x3",
      "blockHash": "0x63cb26ae7e67ff7fb7d3ccd0feea6c67719dbf44342cf1c1e0d871fe2cac4abe",
      "blockNumber": "0x1b34777",
      "gasUsed": "0xbaca",
      "effectiveGasPrice": "0xfe",
      "from": "0xbbef71294f0bf0be60b144b6127ad987138cca2d",
      "to": "0x000000000022d473030f116ddee9f6b43ac78ba3",
      "contractAddress": null,
      "l1BaseFeeScalar": "0x7d0",
      "l1BlobBaseFee": "0x8a1f42",
      "l1BlobBaseFeeScalar": "0xdbba0",
      "l1Fee": "0x349d05ff",
      "l1GasPrice": "0x2b98a0",
      "l1GasUsed": "0x6b2"
    },
    {
      "status": "0x1",
      "cumulativeGasUsed": "0x1bf09",
      "logs": [
        {
          "address": "0x4200000000000000000000000000000000000006",
          "topics": [
            "0x8c5be1e5ebec7d5bd14f71427d1e84f3dd0314c0f7b2291e5b200ac8c7c3b925",
            "0x000000000000000000000000bbef71294f0bf0be60b144b6127ad987138cca2d",
            "0x000000000000000000000000000000000022d473030f116ddee9f6b43ac78ba3"
          ],
          "data": "0xffffffffffffffffffffffffffffffffffffffffffffffffffffffffffffffff",
          "blockHash": "0xf99430e63b51ef6b67dfc2e2a66001ad97dcb6808bd90ab7f3e8524330f71385",
          "blockNumber": "0x1b3477a",
          "transactionHash": "0x47fa797fc92648bcd4785e0dcd319051e11b5619afaff2d2287599c9156ef792",
          "transactionIndex": "0x2",
          "logIndex": "0x0",
          "removed": false
        }
      ],
      "logsBloom": "0x00000000000000000000000000000000000000000000000000040000000000000000000000000000000000100000000000000000800000000000000000200000000000000000000000004000000000000000000000000800000000000000000000000000000000000000000000000000000000000000000000000000008000000000000000000000000000000000000000000000002000000000000000000000020000000000000000000000000000000000000000000420000000000000000000000000000000000000000000000000000000000000000000000000000000000010000000000000000000000000000000000000000000000000000000000000",
      "type": "0x2",
      "transactionHash": "0x47fa797fc92648bcd4785e0dcd319051e11b5619afaff2d2287599c9156ef792",
      "transactionIndex": "0x2",
      "blockHash": "0xf99430e63b51ef6b67dfc2e2a66001ad97dcb6808bd90ab7f3e8524330f71385",
      "blockNumber": "0x1b3477a",
      "gasUsed": "0xb545",
      "effectiveGasPrice": "0xfe",
      "from": "0xbbef71294f0bf0be60b144b6127ad987138cca2d",
      "to": "0x4200000000000000000000000000000000000006",
      "contractAddress": null,
      "l1BaseFeeScalar": "0x7d0",
      "l1BlobBaseFee": "0x918b8d",
      "l1BlobBaseFeeScalar": "0xdbba0",
      "l1Fee": "0x33ad61ab",
      "l1GasPrice": "0x28b9a8",
      "l1GasUsed": "0x640"
    },
    {
      "status": "0x1",
      "cumulativeGasUsed": "0x21686",
      "logs": [
        {
          "address": "0x000000000022d473030f116ddee9f6b43ac78ba3",
          "topics": [
            "0xda9fa7c1b00402c17d0161b249b1ab8bbec047c5a52207b9c112deffd817036b",
            "0x000000000000000000000000bbef71294f0bf0be60b144b6127ad987138cca2d",
            "0x0000000000000000000000004200000000000000000000000000000000000006",
            "0x000000000000000000000000f969aee60879c54baaed9f3ed26147db216fd664"
          ],
          "data": "0x000000000000000000000000ffffffffffffffffffffffffffffffffffffffff0000000000000000000000000000000000000000000000000000ffffffffffff",
          "blockHash": "0xce6226ba79b8e442efcbea1d9cf3bb65e210a028cc33dd5e22a0e7908d1ba52e",
          "blockNumber": "0x1b3477d",
          "transactionHash": "0xf6b13260cb0b8f78d6392bdfade5786c7c657da3ff530d0eeefff7f80f231c3f",
          "transactionIndex": "0x3",
          "logIndex": "0x0",
          "removed": false
        }
      ],
      "logsBloom": "0x00010000000000000000000000000000000000000000000000000000000000000000000000000000000000000000000000000000000000000020000000080000000000000000000000000000000000000000000000000000000000001000000000000000000000000000000000000000000010000040000000000000008000000020000000000000000000000000000000000000000000000000000000000000000000000000000000000000000000000000000000000420000000080000000000000000000004000000000000000000000000000000000040000000000000000000000000000000000000000000000000000000000000000000000000002400",
      "type": "0x2",
      "transactionHash": "0xf6b13260cb0b8f78d6392bdfade5786c7c657da3ff530d0eeefff7f80f231c3f",
      "transactionIndex": "0x3",
      "blockHash": "0xce6226ba79b8e442efcbea1d9cf3bb65e210a028cc33dd5e22a0e7908d1ba52e",
      "blockNumber": "0x1b3477d",
      "gasUsed": "0xb9f2",
      "effectiveGasPrice": "0xfe",
      "from": "0xbbef71294f0bf0be60b144b6127ad987138cca2d",
      "to": "0x000000000022d473030f116ddee9f6b43ac78ba3",
      "contractAddress": null,
      "l1BaseFeeScalar": "0x7d0",
      "l1BlobBaseFee": "0x918b8d",
      "l1BlobBaseFeeScalar": "0xdbba0",
      "l1Fee": "0x33ad61ab",
      "l1GasPrice": "0x28b9a8",
      "l1GasUsed": "0x640"
    },
    {
      "status": "0x1",
      "cumulativeGasUsed": "0x88b83",
      "logs": [
        {
          "address": "0x00b036b58a818b1bc34d502d3fe730db729e62ac",
          "topics": [
            "0xdd466e674ea557f56295e2d0218a125ea4b4f0f6f3307b95f85e6110838d6438",
            "0xaaf71293b186ca2ea9ff2a96dff4dde0ffb33e93afdc93845f8e73bdc735106f",
            "0x00000000000000000000000031d0220469e10c4e71834a79b1f276d740d3768f",
            "0x0000000000000000000000004200000000000000000000000000000000000006"
          ],
          "data": "0x0000000000000000000000000000000000000000000000000000000000000bb8000000000000000000000000000000000000000000000000000000000000003c00000000000000000000000076c721f567c6410d2e19277228241b23a1f680400000000000000000000000000000000000000000081a9ba9bc27e2b7c34b6890fffffffffffffffffffffffffffffffffffffffffffffffffffffffffffef23c",
          "blockHash": "0x3ba001a2421d32107587292d99410e919f8bf1762d1aa48b492c98fa00f57ad8",
          "blockNumber": "0x1b34780",
          "transactionHash": "0x5924f6cf4d79bedefd3f5da4e86787a09a8a00054f4557c145f9b3cb065dc66d",
          "transactionIndex": "0x3",
          "logIndex": "0x0",
          "removed": false
        },
        {
          "address": "0xf969aee60879c54baaed9f3ed26147db216fd664",
          "topics": [
            "0xddf252ad1be2c89b69c2b068fc378daa952ba7f163c4a11628f55a4df523b3ef",
            "0x0000000000000000000000000000000000000000000000000000000000000000",
            "0x000000000000000000000000bbef71294f0bf0be60b144b6127ad987138cca2d",
            "0x00000000000000000000000000000000000000000000000000000000000014bb"
          ],
          "data": "0x",
          "blockHash": "0x3ba001a2421d32107587292d99410e919f8bf1762d1aa48b492c98fa00f57ad8",
          "blockNumber": "0x1b34780",
          "transactionHash": "0x5924f6cf4d79bedefd3f5da4e86787a09a8a00054f4557c145f9b3cb065dc66d",
          "transactionIndex": "0x3",
          "logIndex": "0x1",
          "removed": false
        },
        {
          "address": "0x00b036b58a818b1bc34d502d3fe730db729e62ac",
          "topics": [
            "0xf208f4912782fd25c7f114ca3723a2d5dd6f3bcc3ac8db5af63baa85f711d5ec",
            "0xaaf71293b186ca2ea9ff2a96dff4dde0ffb33e93afdc93845f8e73bdc735106f",
            "0x000000000000000000000000f969aee60879c54baaed9f3ed26147db216fd664"
          ],
          "data": "0xfffffffffffffffffffffffffffffffffffffffffffffffffffffffffffe4274ffffffffffffffffffffffffffffffffffffffffffffffffffffffffffffa204000000000000000000000000000000000000000000000000000000000002b32200000000000000000000000000000000000000000000000000000000000014bb",
          "blockHash": "0x3ba001a2421d32107587292d99410e919f8bf1762d1aa48b492c98fa00f57ad8",
          "blockNumber": "0x1b34780",
          "transactionHash": "0x5924f6cf4d79bedefd3f5da4e86787a09a8a00054f4557c145f9b3cb065dc66d",
          "transactionIndex": "0x3",
          "logIndex": "0x2",
          "removed": false
        },
        {
          "address": "0x31d0220469e10c4e71834a79b1f276d740d3768f",
          "topics": [
            "0xddf252ad1be2c89b69c2b068fc378daa952ba7f163c4a11628f55a4df523b3ef",
            "0x000000000000000000000000bbef71294f0bf0be60b144b6127ad987138cca2d",
            "0x00000000000000000000000000b036b58a818b1bc34d502d3fe730db729e62ac"
          ],
          "data": "0x00000000000000000000000000000000000000000000000000000000004c4b33",
          "blockHash": "0x3ba001a2421d32107587292d99410e919f8bf1762d1aa48b492c98fa00f57ad8",
          "blockNumber": "0x1b34780",
          "transactionHash": "0x5924f6cf4d79bedefd3f5da4e86787a09a8a00054f4557c145f9b3cb065dc66d",
          "transactionIndex": "0x3",
          "logIndex": "0x3",
          "removed": false
        },
        {
          "address": "0x4200000000000000000000000000000000000006",
          "topics": [
            "0xddf252ad1be2c89b69c2b068fc378daa952ba7f163c4a11628f55a4df523b3ef",
            "0x000000000000000000000000bbef71294f0bf0be60b144b6127ad987138cca2d",
            "0x00000000000000000000000000b036b58a818b1bc34d502d3fe730db729e62ac"
          ],
          "data": "0x0000000000000000000000000000000000000000000000000000000000001393",
          "blockHash": "0x3ba001a2421d32107587292d99410e919f8bf1762d1aa48b492c98fa00f57ad8",
          "blockNumber": "0x1b34780",
          "transactionHash": "0x5924f6cf4d79bedefd3f5da4e86787a09a8a00054f4557c145f9b3cb065dc66d",
          "transactionIndex": "0x3",
          "logIndex": "0x4",
          "removed": false
        }
      ],
      "logsBloom": "0x00000000000000000000000000000000000000000000000000040000000000000000000000000080080000100000000000000000001000000020000000000000000000000000000000000008000000000000000000001000000000001000000000000000020000000000000000004800001010000040000000000010018000000000000001000008000000000008000000000001002000000000020000200000000004000001000080000000000000000800000000000420000000000000000000004002080004008400000000000000000000000000000000000000000020004000000000001000000000000000000004000000000002000000000000002010",
      "type": "0x2",
      "transactionHash": "0x5924f6cf4d79bedefd3f5da4e86787a09a8a00054f4557c145f9b3cb065dc66d",
      "transactionIndex": "0x3",
      "blockHash": "0x3ba001a2421d32107587292d99410e919f8bf1762d1aa48b492c98fa00f57ad8",
      "blockNumber": "0x1b34780",
      "gasUsed": "0x72eef",
      "effectiveGasPrice": "0xfe",
      "from": "0xbbef71294f0bf0be60b144b6127ad987138cca2d",
      "to": "0xf969aee60879c54baaed9f3ed26147db216fd664",
      "contractAddress": null,
      "l1BaseFeeScalar": "0x7d0",
      "l1BlobBaseFee": "0x918b8d",
      "l1BlobBaseFeeScalar": "0xdbba0",
      "l1Fee": "0xab38e586",
      "l1GasPrice": "0x28b9a8",
      "l1GasUsed": "0x14b5"
    }
  ],
  "libraries": [],
  "pending": [],
  "returns": {},
  "timestamp": 1755378893829,
  "chain": 1301,
  "commit": "71bfa58"
}