{
  "transactions": [
    {
      "hash": "0x3a71e3131c3a086dfd01f4ae20816d54db9f8553e6dcfec906c0ad0eb34c41a0",
      "transactionType": "CALL",
      "contractName": null,
      "contractAddress": "0xcac524bca292aaade2df8a05cc58f0a65b1b3bb9",
      "function": "approve(address,uint256)",
      "arguments": [
        "0x000000000022D473030F116dDEE9F6B43aC78BA3",
        "115792089237316195423570985008687907853269984665640564039457584007913129639935"
      ],
      "transaction": {
        "from": "0xbbef71294f0bf0be60b144b6127ad987138cca2d",
        "to": "0xcac524bca292aaade2df8a05cc58f0a65b1b3bb9",
        "value": "0x0",
        "input": "0x095ea7b3000000000000000000000000000000000022d473030f116ddee9f6b43ac78ba3ffffffffffffffffffffffffffffffffffffffffffffffffffffffffffffffff",
        "nonce": "0x18",
        "chainId": "0xaa36a7"
      },
      "additionalContracts": [],
      "isFixedGasLimit": false
    },
    {
      "hash": "0x3b48858c0148a816dcc28a0ff2254f78aacfd2a8cbd886b12bfee6fd3b9741d6",
      "transactionType": "CALL",
      "contractName": null,
      "contractAddress": "0x000000000022d473030f116ddee9f6b43ac78ba3",
      "function": "approve(address,address,uint160,uint48)",
      "arguments": [
        "0xCaC524BcA292aaade2DF8A05cC58F0a65B1B3bB9",
        "0x429ba70129df741B2Ca2a85BC3A2a3328e5c09b4",
        "1461501637330902918203684832716283019655932542975",
        "281474976710655"
      ],
      "transaction": {
        "from": "0xbbef71294f0bf0be60b144b6127ad987138cca2d",
        "to": "0x000000000022d473030f116ddee9f6b43ac78ba3",
        "value": "0x0",
        "input": "0x87517c45000000000000000000000000cac524bca292aaade2df8a05cc58f0a65b1b3bb9000000000000000000000000429ba70129df741b2ca2a85bc3a2a3328e5c09b4000000000000000000000000ffffffffffffffffffffffffffffffffffffffff0000000000000000000000000000000000000000000000000000ffffffffffff",
        "nonce": "0x19",
        "chainId": "0xaa36a7"
      },
      "additionalContracts": [],
      "isFixedGasLimit": false
    },
    {
      "hash": "0x2e57f035023bcd77c942eb6f280b8a6f9b7b724709c2b3f5248ead7e2b601264",
      "transactionType": "CALL",
      "contractName": null,
      "contractAddress": "0x7b79995e5f793a07bc00c21412e50ecae098e7f9",
      "function": "approve(address,uint256)",
      "arguments": [
        "0x000000000022D473030F116dDEE9F6B43aC78BA3",
        "115792089237316195423570985008687907853269984665640564039457584007913129639935"
      ],
      "transaction": {
        "from": "0xbbef71294f0bf0be60b144b6127ad987138cca2d",
        "to": "0x7b79995e5f793a07bc00c21412e50ecae098e7f9",
        "value": "0x0",
        "input": "0x095ea7b3000000000000000000000000000000000022d473030f116ddee9f6b43ac78ba3ffffffffffffffffffffffffffffffffffffffffffffffffffffffffffffffff",
        "nonce": "0x1a",
        "chainId": "0xaa36a7"
      },
      "additionalContracts": [],
      "isFixedGasLimit": false
    },
    {
      "hash": "0x08386136190312f23ef5362697c104352dc065138cfff6d20da53ae2ca7fe364",
      "transactionType": "CALL",
      "contractName": null,
      "contractAddress": "0x000000000022d473030f116ddee9f6b43ac78ba3",
      "function": "approve(address,address,uint160,uint48)",
      "arguments": [
        "0x7b79995e5f793A07Bc00c21412e50Ecae098E7f9",
        "0x429ba70129df741B2Ca2a85BC3A2a3328e5c09b4",
        "1461501637330902918203684832716283019655932542975",
        "281474976710655"
      ],
      "transaction": {
        "from": "0xbbef71294f0bf0be60b144b6127ad987138cca2d",
        "to": "0x000000000022d473030f116ddee9f6b43ac78ba3",
        "value": "0x0",
        "input": "0x87517c450000000000000000000000007b79995e5f793a07bc00c21412e50ecae098e7f9000000000000000000000000429ba70129df741b2ca2a85bc3a2a3328e5c09b4000000000000000000000000ffffffffffffffffffffffffffffffffffffffff0000000000000000000000000000000000000000000000000000ffffffffffff",
        "nonce": "0x1b",
        "chainId": "0xaa36a7"
      },
      "additionalContracts": [],
      "isFixedGasLimit": false
    },
    {
      "hash": "0xf641cc39573ed9801055c196f6e386f7b41de50254f1dd1b9997ef233de500a1",
      "transactionType": "CALL",
      "contractName": null,
      "contractAddress": "0x429ba70129df741b2ca2a85bc3a2a3328e5c09b4",
      "function": "multicall(bytes[])",
      "arguments": [
        "[0xf70204050000000000000000000000007b79995e5f793a07bc00c21412e50ecae098e7f9000000000000000000000000cac524bca292aaade2df8a05cc58f0a65b1b3bb90000000000000000000000000000000000000000000000000000000000000bb8000000000000000000000000000000000000000000000000000000000000003c000000000000000000000000c7e2a9498846dd2ed07a135a01c2bc51ae9200400000000000000000000000000000000000000000081a9ba9bc27e2b7c34b689000000000000000000000000000000000000000000000000000000000000000e00000000000000000000000000000000000000000000000000000000000000000, 0xdd46508f00000000000000000000000000000000000000000000000000000000000000400000000000000000000000000000000000000000000000000000000068a1a88c0000000000000000000000000000000000000000000000000000000000000400000000000000000000000000000000000000000000000000000000000000004000000000000000000000000000000000000000000000000000000000000000800000000000000000000000000000000000000000000000000000000000000004020d14140000000000000000000000000000000000000000000000000000000000000000000000000000000000000000000000000000000000000000000000040000000000000000000000000000000000000000000000000000000000000080000000000000000000000000000000000000000000000000000000000000024000000000000000000000000000000000000000000000000000000000000002a0000000000000000000000000000000000000000000000000000000000000030000000000000000000000000000000000000000000000000000000000000001a00000000000000000000000007b79995e5f793a07bc00c21412e50ecae098e7f9000000000000000000000000cac524bca292aaade2df8a05cc58f0a65b1b3bb90000000000000000000000000000000000000000000000000000000000000bb8000000000000000000000000000000000000000000000000000000000000003c000000000000000000000000c7e2a9498846dd2ed07a135a01c2bc51ae920040fffffffffffffffffffffffffffffffffffffffffffffffffffffffffffe4274ffffffffffffffffffffffffffffffffffffffffffffffffffffffffffffa204000000000000000000000000000000000000000000000000000000000002b32200000000000000000000000000000000000000000000000000000000004c4b410000000000000000000000000000000000000000000000000011c37937e08001000000000000000000000000bbef71294f0bf0be60b144b6127ad987138cca2d0000000000000000000000000000000000000000000000000000000000000180000000000000000000000000000000000000000000000000000000000000000000000000000000000000000000000000000000000000000000000000000000400000000000000000000000007b79995e5f793a07bc00c21412e50ecae098e7f9000000000000000000000000cac524bca292aaade2df8a05cc58f0a65b1b3bb900000000000000000000000000000000000000000000000000000000000000400000000000000000000000007b79995e5f793a07bc00c21412e50ecae098e7f9000000000000000000000000bbef71294f0bf0be60b144b6127ad987138cca2d0000000000000000000000000000000000000000000000000000000000000040000000000000000000000000cac524bca292aaade2df8a05cc58f0a65b1b3bb9000000000000000000000000bbef71294f0bf0be60b144b6127ad987138cca2d]"
      ],
      "transaction": {
        "from": "0xbbef71294f0bf0be60b144b6127ad987138cca2d",
        "to": "0x429ba70129df741b2ca2a85bc3a2a3328e5c09b4",
        "value": "0x0",
        "input": "0xac9650d800000000000000000000000000000000000000000000000000000000000000200000000000000000000000000000000000000000000000000000000000000002000000000000000000000000000000000000000000000000000000000000004000000000000000000000000000000000000000000000000000000000000001800000000000000000000000000000000000000000000000000000000000000104f70204050000000000000000000000007b79995e5f793a07bc00c21412e50ecae098e7f9000000000000000000000000cac524bca292aaade2df8a05cc58f0a65b1b3bb90000000000000000000000000000000000000000000000000000000000000bb8000000000000000000000000000000000000000000000000000000000000003c000000000000000000000000c7e2a9498846dd2ed07a135a01c2bc51ae9200400000000000000000000000000000000000000000081a9ba9bc27e2b7c34b689000000000000000000000000000000000000000000000000000000000000000e00000000000000000000000000000000000000000000000000000000000000000000000000000000000000000000000000000000000000000000000000000000000000000000000000000000000000000000000000000000000000464dd46508f00000000000000000000000000000000000000000000000000000000000000400000000000000000000000000000000000000000000000000000000068a1a88c0000000000000000000000000000000000000000000000000000000000000400000000000000000000000000000000000000000000000000000000000000004000000000000000000000000000000000000000000000000000000000000000800000000000000000000000000000000000000000000000000000000000000004020d14140000000000000000000000000000000000000000000000000000000000000000000000000000000000000000000000000000000000000000000000040000000000000000000000000000000000000000000000000000000000000080000000000000000000000000000000000000000000000000000000000000024000000000000000000000000000000000000000000000000000000000000002a0000000000000000000000000000000000000000000000000000000000000030000000000000000000000000000000000000000000000000000000000000001a00000000000000000000000007b79995e5f793a07bc00c21412e50ecae098e7f9000000000000000000000000cac524bca292aaade2df8a05cc58f0a65b1b3bb90000000000000000000000000000000000000000000000000000000000000bb8000000000000000000000000000000000000000000000000000000000000003c000000000000000000000000c7e2a9498846dd2ed07a135a01c2bc51ae920040fffffffffffffffffffffffffffffffffffffffffffffffffffffffffffe4274ffffffffffffffffffffffffffffffffffffffffffffffffffffffffffffa204000000000000000000000000000000000000000000000000000000000002b32200000000000000000000000000000000000000000000000000000000004c4b410000000000000000000000000000000000000000000000000011c37937e08001000000000000000000000000bbef71294f0bf0be60b144b6127ad987138cca2d0000000000000000000000000000000000000000000000000000000000000180000000000000000000000000000000000000000000000000000000000000000000000000000000000000000000000000000000000000000000000000000000400000000000000000000000007b79995e5f793a07bc00c21412e50ecae098e7f9000000000000000000000000cac524bca292aaade2df8a05cc58f0a65b1b3bb900000000000000000000000000000000000000000000000000000000000000400000000000000000000000007b79995e5f793a07bc00c21412e50ecae098e7f9000000000000000000000000bbef71294f0bf0be60b144b6127ad987138cca2d0000000000000000000000000000000000000000000000000000000000000040000000000000000000000000cac524bca292aaade2df8a05cc58f0a65b1b3bb9000000000000000000000000bbef71294f0bf0be60b144b6127ad987138cca2d00000000000000000000000000000000000000000000000000000000",
        "nonce": "0x1c",
        "chainId": "0xaa36a7"
      },
      "additionalContracts": [],
      "isFixedGasLimit": false
    }
  ],
  "receipts": [
    {
      "status": "0x1",
      "cumulativeGasUsed": "0x12f9c00",
      "logs": [
        {
          "address": "0xcac524bca292aaade2df8a05cc58f0a65b1b3bb9",
          "topics": [
            "0x8c5be1e5ebec7d5bd14f71427d1e84f3dd0314c0f7b2291e5b200ac8c7c3b925",
            "0x000000000000000000000000bbef71294f0bf0be60b144b6127ad987138cca2d",
            "0x000000000000000000000000000000000022d473030f116ddee9f6b43ac78ba3"
          ],
          "data": "0xffffffffffffffffffffffffffffffffffffffffffffffffffffffffffffffff",
          "blockHash": "0xd2b0134ade660930a328eb770cf3340ebe7bc500a6763767fc2f1d9df7eeba39",
          "blockNumber": "0x895f85",
          "transactionHash": "0x3a71e3131c3a086dfd01f4ae20816d54db9f8553e6dcfec906c0ad0eb34c41a0",
          "transactionIndex": "0x173",
          "logIndex": "0x91",
          "removed": false
        }
      ],
      "logsBloom": "0x00000000000000000000000000000000000000000000000000000000000000000000000000000000000000000000800000000000800000000000000000200000000000000000000000004000000000000000000000000800000000000000000000000000000000000000000000000000000000000000000000000000008000000000000000000000000000000000000000000000000000000000000000000000020000000000000000000000000040000000000000000420000000000000000000000000000000000000000000000000200000000000000000000000000000000010000000000000000000000000000000000000000000000000000000000000",
      "type": "0x2",
      "transactionHash": "0x3a71e3131c3a086dfd01f4ae20816d54db9f8553e6dcfec906c0ad0eb34c41a0",
      "transactionIndex": "0x173",
      "blockHash": "0xd2b0134ade660930a328eb770cf3340ebe7bc500a6763767fc2f1d9df7eeba39",
      "blockNumber": "0x895f85",
      "gasUsed": "0xec10",
      "effectiveGasPrice": "0x14768232",
      "from": "0xbbef71294f0bf0be60b144b6127ad987138cca2d",
      "to": "0xcac524bca292aaade2df8a05cc58f0a65b1b3bb9",
      "contractAddress": null
    },
    {
      "status": "0x1",
      "cumulativeGasUsed": "0xe02f86",
      "logs": [
        {
          "address": "0x000000000022d473030f116ddee9f6b43ac78ba3",
          "topics": [
            "0xda9fa7c1b00402c17d0161b249b1ab8bbec047c5a52207b9c112deffd817036b",
            "0x000000000000000000000000bbef71294f0bf0be60b144b6127ad987138cca2d",
            "0x000000000000000000000000cac524bca292aaade2df8a05cc58f0a65b1b3bb9",
            "0x000000000000000000000000429ba70129df741b2ca2a85bc3a2a3328e5c09b4"
          ],
          "data": "0x000000000000000000000000ffffffffffffffffffffffffffffffffffffffff0000000000000000000000000000000000000000000000000000ffffffffffff",
          "blockHash": "0x99c6c97d519ff6da8ffb77dd198ff95aa4c6cc056b0034e55240ba6f1fb37084",
          "blockNumber": "0x895f86",
          "transactionHash": "0x3b48858c0148a816dcc28a0ff2254f78aacfd2a8cbd886b12bfee6fd3b9741d6",
          "transactionIndex": "0xa7",
          "logIndex": "0xa0",
          "removed": false
        }
      ],
      "logsBloom": "0x02010000000000000000000000000000000000000000000000000000000000000000000000000040080000000000000000000000000000000000000000080000000000000000000000000000000000000000000000000000000000000000000000000000000000000000000000000000000000000000000000000800008000000020000000000000000000000000000000000000000000000000000000000000000000000000000000000000000000000000000000000420000000080000000000000020000000000000000002000000000000000000000040000000000000000000000000000000000000000000000000000000000000000000000000000400",
      "type": "0x2",
      "transactionHash": "0x3b48858c0148a816dcc28a0ff2254f78aacfd2a8cbd886b12bfee6fd3b9741d6",
      "transactionIndex": "0xa7",
      "blockHash": "0x99c6c97d519ff6da8ffb77dd198ff95aa4c6cc056b0034e55240ba6f1fb37084",
      "blockNumber": "0x895f86",
      "gasUsed": "0xbaca",
      "effectiveGasPrice": "0x14856f53",
      "from": "0xbbef71294f0bf0be60b144b6127ad987138cca2d",
      "to": "0x000000000022d473030f116ddee9f6b43ac78ba3",
      "contractAddress": null
    },
    {
      "status": "0x1",
      "cumulativeGasUsed": "0x6befcc",
      "logs": [
        {
          "address": "0x7b79995e5f793a07bc00c21412e50ecae098e7f9",
          "topics": [
            "0x8c5be1e5ebec7d5bd14f71427d1e84f3dd0314c0f7b2291e5b200ac8c7c3b925",
            "0x000000000000000000000000bbef71294f0bf0be60b144b6127ad987138cca2d",
            "0x000000000000000000000000000000000022d473030f116ddee9f6b43ac78ba3"
          ],
          "data": "0xffffffffffffffffffffffffffffffffffffffffffffffffffffffffffffffff",
          "blockHash": "0xee9526d2b558e156bce848166c0fbd3fe170a0dd5402861aca34e4e778c293ad",
          "blockNumber": "0x895f87",
          "transactionHash": "0x2e57f035023bcd77c942eb6f280b8a6f9b7b724709c2b3f5248ead7e2b601264",
          "transactionIndex": "0x54",
          "logIndex": "0x54",
          "removed": false
        }
      ],
      "logsBloom": "0x00000000000000000000000000000000000000000000000000000004000000000000000000000000000000000000000000000000800000000000000000200000000000000000000000004000000000000000000000000800000000000000000000000000000000000000000000000000000000000000000000000000008000000000000000000000000000000000000000000000000000000000000000000000020000000000000000000000000000080000000000000420000000000000000000000002000000000000000000000000000000000000000000000000000000000010000000000000000000000000000000000000000000000000000000000000",
      "type": "0x2",
      "transactionHash": "0x2e57f035023bcd77c942eb6f280b8a6f9b7b724709c2b3f5248ead7e2b601264",
      "transactionIndex": "0x54",
      "blockHash": "0xee9526d2b558e156bce848166c0fbd3fe170a0dd5402861aca34e4e778c293ad",
      "blockNumber": "0x895f87",
      "gasUsed": "0xb4cc",
      "effectiveGasPrice": "0x13803f4c",
      "from": "0xbbef71294f0bf0be60b144b6127ad987138cca2d",
      "to": "0x7b79995e5f793a07bc00c21412e50ecae098e7f9",
      "contractAddress": null
    },
    {
      "status": "0x1",
      "cumulativeGasUsed": "0xb65c6f",
      "logs": [
        {
          "address": "0x000000000022d473030f116ddee9f6b43ac78ba3",
          "topics": [
            "0xda9fa7c1b00402c17d0161b249b1ab8bbec047c5a52207b9c112deffd817036b",
            "0x000000000000000000000000bbef71294f0bf0be60b144b6127ad987138cca2d",
            "0x0000000000000000000000007b79995e5f793a07bc00c21412e50ecae098e7f9",
            "0x000000000000000000000000429ba70129df741b2ca2a85bc3a2a3328e5c09b4"
          ],
          "data": "0x000000000000000000000000ffffffffffffffffffffffffffffffffffffffff0000000000000000000000000000000000000000000000000000ffffffffffff",
          "blockHash": "0x03c4401ee48913c1e6fd63f201f2b89f8a41f4033e2c181bc922a66f0f716976",
          "blockNumber": "0x895f88",
          "transactionHash": "0x08386136190312f23ef5362697c104352dc065138cfff6d20da53ae2ca7fe364",
          "transactionIndex": "0x75",
          "logIndex": "0xc0",
          "removed": false
        }
      ],
      "logsBloom": "0x00010000000000000000000000000000000000000000000000000000000000000000000000000042080000000000000000000000000000000000000000080000000000000000000000000040000000000000004000000000000000000000000000000000000000000000000000000000000000000000000000000800008000000020000000000000000000000000000000000000000000000000000000000000000000000000000000000000000000000000000000000420000000080000000000000000000000000000000000000000000000000000000040000000000000000000000000000000000000000000000000000000000000000000000000000400",
      "type": "0x2",
      "transactionHash": "0x08386136190312f23ef5362697c104352dc065138cfff6d20da53ae2ca7fe364",
      "transactionIndex": "0x75",
      "blockHash": "0x03c4401ee48913c1e6fd63f201f2b89f8a41f4033e2c181bc922a66f0f716976",
      "blockNumber": "0x895f88",
      "gasUsed": "0xbabe",
      "effectiveGasPrice": "0x11fb0be8",
      "from": "0xbbef71294f0bf0be60b144b6127ad987138cca2d",
      "to": "0x000000000022d473030f116ddee9f6b43ac78ba3",
      "contractAddress": null
    },
    {
      "status": "0x1",
      "cumulativeGasUsed": "0xd51b4d",
      "logs": [
        {
          "address": "0xe03a1074c86cfedd5c142c4f04f1a1536e203543",
          "topics": [
            "0xdd466e674ea557f56295e2d0218a125ea4b4f0f6f3307b95f85e6110838d6438",
            "0x6f75a045bdaa32164f5451a86993ed2af026dff9db20c4b3198f98581c09aae7",
            "0x0000000000000000000000007b79995e5f793a07bc00c21412e50ecae098e7f9",
            "0x000000000000000000000000cac524bca292aaade2df8a05cc58f0a65b1b3bb9"
          ],
          "data": "0x0000000000000000000000000000000000000000000000000000000000000bb8000000000000000000000000000000000000000000000000000000000000003c000000000000000000000000c7e2a9498846dd2ed07a135a01c2bc51ae9200400000000000000000000000000000000000000000081a9ba9bc27e2b7c34b6890fffffffffffffffffffffffffffffffffffffffffffffffffffffffffffef23c",
          "blockHash": "0x5b5bb198cbdad601047ac925afe77e61ea2e646f4c3d5e40c2a8b9dbde01837d",
          "blockNumber": "0x895f89",
          "transactionHash": "0xf641cc39573ed9801055c196f6e386f7b41de50254f1dd1b9997ef233de500a1",
          "transactionIndex": "0x87",
          "logIndex": "0xb5",
          "removed": false
        },
        {
          "address": "0x429ba70129df741b2ca2a85bc3a2a3328e5c09b4",
          "topics": [
            "0xddf252ad1be2c89b69c2b068fc378daa952ba7f163c4a11628f55a4df523b3ef",
            "0x0000000000000000000000000000000000000000000000000000000000000000",
            "0x000000000000000000000000bbef71294f0bf0be60b144b6127ad987138cca2d",
            "0x0000000000000000000000000000000000000000000000000000000000003e46"
          ],
          "data": "0x",
          "blockHash": "0x5b5bb198cbdad601047ac925afe77e61ea2e646f4c3d5e40c2a8b9dbde01837d",
          "blockNumber": "0x895f89",
          "transactionHash": "0xf641cc39573ed9801055c196f6e386f7b41de50254f1dd1b9997ef233de500a1",
          "transactionIndex": "0x87",
          "logIndex": "0xb6",
          "removed": false
        },
        {
          "address": "0xe03a1074c86cfedd5c142c4f04f1a1536e203543",
          "topics": [
            "0xf208f4912782fd25c7f114ca3723a2d5dd6f3bcc3ac8db5af63baa85f711d5ec",
            "0x6f75a045bdaa32164f5451a86993ed2af026dff9db20c4b3198f98581c09aae7",
            "0x000000000000000000000000429ba70129df741b2ca2a85bc3a2a3328e5c09b4"
          ],
          "data": "0xfffffffffffffffffffffffffffffffffffffffffffffffffffffffffffe4274ffffffffffffffffffffffffffffffffffffffffffffffffffffffffffffa204000000000000000000000000000000000000000000000000000000000002b3220000000000000000000000000000000000000000000000000000000000003e46",
          "blockHash": "0x5b5bb198cbdad601047ac925afe77e61ea2e646f4c3d5e40c2a8b9dbde01837d",
          "blockNumber": "0x895f89",
          "transactionHash": "0xf641cc39573ed9801055c196f6e386f7b41de50254f1dd1b9997ef233de500a1",
          "transactionIndex": "0x87",
          "logIndex": "0xb7",
          "removed": false
        },
        {
          "address": "0x7b79995e5f793a07bc00c21412e50ecae098e7f9",
          "topics": [
            "0xddf252ad1be2c89b69c2b068fc378daa952ba7f163c4a11628f55a4df523b3ef",
            "0x000000000000000000000000bbef71294f0bf0be60b144b6127ad987138cca2d",
            "0x000000000000000000000000e03a1074c86cfedd5c142c4f04f1a1536e203543"
          ],
          "data": "0x00000000000000000000000000000000000000000000000000000000004c4b33",
          "blockHash": "0x5b5bb198cbdad601047ac925afe77e61ea2e646f4c3d5e40c2a8b9dbde01837d",
          "blockNumber": "0x895f89",
          "transactionHash": "0xf641cc39573ed9801055c196f6e386f7b41de50254f1dd1b9997ef233de500a1",
          "transactionIndex": "0x87",
          "logIndex": "0xb8",
          "removed": false
        },
        {
          "address": "0xcac524bca292aaade2df8a05cc58f0a65b1b3bb9",
          "topics": [
            "0xddf252ad1be2c89b69c2b068fc378daa952ba7f163c4a11628f55a4df523b3ef",
            "0x000000000000000000000000bbef71294f0bf0be60b144b6127ad987138cca2d",
            "0x000000000000000000000000e03a1074c86cfedd5c142c4f04f1a1536e203543"
          ],
          "data": "0x0000000000000000000000000000000000000000000000000000000000001393",
          "blockHash": "0x5b5bb198cbdad601047ac925afe77e61ea2e646f4c3d5e40c2a8b9dbde01837d",
          "blockNumber": "0x895f89",
          "transactionHash": "0xf641cc39573ed9801055c196f6e386f7b41de50254f1dd1b9997ef233de500a1",
          "transactionIndex": "0x87",
          "logIndex": "0xb9",
          "removed": false
        }
      ],
      "logsBloom": "0x02000000000000000000001000000000000000000000000000000004080000000000000000000042080000000000800000001100002001000000000000000000000000000000000000000048000000000000004000000000000000000000000000000000020000000000000080000800000000000000100000000810008000000000000001000008000010000000000000000001000000000000000000200000000004000000000000000000000040080000000000400420000000000000000000000022000000000000000002000000200000000000000000001020000020001000000000000000000040000000000004000000000000000000000000000000",
      "type": "0x2",
      "transactionHash": "0xf641cc39573ed9801055c196f6e386f7b41de50254f1dd1b9997ef233de500a1",
      "transactionIndex": "0x87",
      "blockHash": "0x5b5bb198cbdad601047ac925afe77e61ea2e646f4c3d5e40c2a8b9dbde01837d",
      "blockNumber": "0x895f89",
      "gasUsed": "0x74040",
      "effectiveGasPrice": "0x10f3257c",
      "from": "0xbbef71294f0bf0be60b144b6127ad987138cca2d",
      "to": "0x429ba70129df741b2ca2a85bc3a2a3328e5c09b4",
      "contractAddress": null
    }
  ],
  "libraries": [],
  "pending": [],
  "returns": {},
  "timestamp": 1755421407105,
  "chain": 11155111,
  "commit": "71bfa58"
}